{
  "contractName": "CPAMM",
  "abi": [
    {
      "constant": true,
      "inputs": [
        {
          "internalType": "address",
          "name": "",
          "type": "address"
        }
      ],
      "name": "balanceOf",
      "outputs": [
        {
          "internalType": "uint256",
          "name": "",
          "type": "uint256"
        }
      ],
      "payable": false,
      "stateMutability": "view",
      "type": "function"
    },
    {
      "constant": true,
      "inputs": [],
      "name": "reserve0",
      "outputs": [
        {
          "internalType": "uint256",
          "name": "",
          "type": "uint256"
        }
      ],
      "payable": false,
      "stateMutability": "view",
      "type": "function"
    },
    {
      "constant": true,
      "inputs": [],
      "name": "reserve1",
      "outputs": [
        {
          "internalType": "uint256",
          "name": "",
          "type": "uint256"
        }
      ],
      "payable": false,
      "stateMutability": "view",
      "type": "function"
    },
    {
      "constant": true,
      "inputs": [],
      "name": "token0",
      "outputs": [
        {
          "internalType": "contract ERC20Interface",
          "name": "",
          "type": "address"
        }
      ],
      "payable": false,
      "stateMutability": "view",
      "type": "function"
    },
    {
      "constant": true,
      "inputs": [],
      "name": "token1",
      "outputs": [
        {
          "internalType": "contract ERC20Interface",
          "name": "",
          "type": "address"
        }
      ],
      "payable": false,
      "stateMutability": "view",
      "type": "function"
    },
    {
      "constant": true,
      "inputs": [],
      "name": "totalSupply",
      "outputs": [
        {
          "internalType": "uint256",
          "name": "",
          "type": "uint256"
        }
      ],
      "payable": false,
      "stateMutability": "view",
      "type": "function"
    },
    {
      "constant": false,
      "inputs": [
        {
          "internalType": "contract ERC20Interface",
          "name": "_token0",
          "type": "address"
        },
        {
          "internalType": "contract ERC20Interface",
          "name": "_token1",
          "type": "address"
        }
      ],
      "name": "_newCaPMM",
      "outputs": [],
      "payable": false,
      "stateMutability": "nonpayable",
      "type": "function"
    },
    {
      "constant": false,
      "inputs": [
        {
          "internalType": "address",
          "name": "_tokenIn",
          "type": "address"
        },
        {
          "internalType": "uint256",
          "name": "_amountIn",
          "type": "uint256"
        }
      ],
      "name": "swap",
      "outputs": [
        {
          "internalType": "uint256",
          "name": "amountOut",
          "type": "uint256"
        }
      ],
      "payable": false,
      "stateMutability": "nonpayable",
      "type": "function"
    },
    {
      "constant": false,
      "inputs": [
        {
          "internalType": "uint256",
          "name": "_amount0",
          "type": "uint256"
        },
        {
          "internalType": "uint256",
          "name": "_amount1",
          "type": "uint256"
        }
      ],
      "name": "addLiquidity",
      "outputs": [
        {
          "internalType": "uint256",
          "name": "shares",
          "type": "uint256"
        }
      ],
      "payable": false,
      "stateMutability": "nonpayable",
      "type": "function"
    },
    {
      "constant": false,
      "inputs": [
        {
          "internalType": "uint256",
          "name": "_shares",
          "type": "uint256"
        }
      ],
      "name": "removeLiquidity",
      "outputs": [
        {
          "internalType": "uint256",
          "name": "amount0",
          "type": "uint256"
        },
        {
          "internalType": "uint256",
          "name": "amount1",
          "type": "uint256"
        }
      ],
      "payable": false,
      "stateMutability": "nonpayable",
      "type": "function"
    }
  ],
  "bytecode": "0x608060405234801561001057600080fd5b50611597806100206000396000f3fe608060405234801561001057600080fd5b506004361061009e5760003560e01c806370a082311161006657806370a08231146101ab5780639c8f9f23146102035780639cd441da1461024c578063d004f0f714610298578063d21220a7146102fa5761009e565b80630dfe1681146100a357806318160ddd146100ed578063443cb4bc1461010b57806348c371ce146101295780635a76f25e1461018d575b600080fd5b6100ab610344565b604051808273ffffffffffffffffffffffffffffffffffffffff1673ffffffffffffffffffffffffffffffffffffffff16815260200191505060405180910390f35b6100f5610369565b6040518082815260200191505060405180910390f35b61011361036f565b6040518082815260200191505060405180910390f35b61018b6004803603604081101561013f57600080fd5b81019080803573ffffffffffffffffffffffffffffffffffffffff169060200190929190803573ffffffffffffffffffffffffffffffffffffffff169060200190929190505050610375565b005b6101956103fa565b6040518082815260200191505060405180910390f35b6101ed600480360360208110156101c157600080fd5b81019080803573ffffffffffffffffffffffffffffffffffffffff169060200190929190505050610400565b6040518082815260200191505060405180910390f35b61022f6004803603602081101561021957600080fd5b8101908080359060200190929190505050610418565b604051808381526020018281526020019250505060405180910390f35b6102826004803603604081101561026257600080fd5b810190808035906020019092919080359060200190929190505050610860565b6040518082815260200191505060405180910390f35b6102e4600480360360408110156102ae57600080fd5b81019080803573ffffffffffffffffffffffffffffffffffffffff16906020019092919080359060200190929190505050610db2565b6040518082815260200191505060405180910390f35b6103026113ec565b604051808273ffffffffffffffffffffffffffffffffffffffff1673ffffffffffffffffffffffffffffffffffffffff16815260200191505060405180910390f35b6000809054906101000a900473ffffffffffffffffffffffffffffffffffffffff1681565b60045481565b60025481565b816000806101000a81548173ffffffffffffffffffffffffffffffffffffffff021916908373ffffffffffffffffffffffffffffffffffffffff16021790555080600160006101000a81548173ffffffffffffffffffffffffffffffffffffffff021916908373ffffffffffffffffffffffffffffffffffffffff1602179055505050565b60035481565b60056020528060005260406000206000915090505481565b60008060008060009054906101000a900473ffffffffffffffffffffffffffffffffffffffff1673ffffffffffffffffffffffffffffffffffffffff166370a08231306040518263ffffffff1660e01b8152600401808273ffffffffffffffffffffffffffffffffffffffff1673ffffffffffffffffffffffffffffffffffffffff16815260200191505060206040518083038186803b1580156104bb57600080fd5b505afa1580156104cf573d6000803e3d6000fd5b505050506040513d60208110156104e557600080fd5b810190808051906020019092919050505090506000600160009054906101000a900473ffffffffffffffffffffffffffffffffffffffff1673ffffffffffffffffffffffffffffffffffffffff166370a08231306040518263ffffffff1660e01b8152600401808273ffffffffffffffffffffffffffffffffffffffff1673ffffffffffffffffffffffffffffffffffffffff16815260200191505060206040518083038186803b15801561059957600080fd5b505afa1580156105ad573d6000803e3d6000fd5b505050506040513d60208110156105c357600080fd5b81019080805190602001909291905050509050600454828602816105e357fe5b049350600454818602816105f357fe5b0492506000841180156106065750600083115b610678576040517f08c379a00000000000000000000000000000000000000000000000000000000081526004018080602001828103825260168152602001807f616d6f756e7430206f7220616d6f756e7431203d20300000000000000000000081525060200191505060405180910390fd5b6106823386611412565b610690848303848303611473565b6000809054906101000a900473ffffffffffffffffffffffffffffffffffffffff1673ffffffffffffffffffffffffffffffffffffffff1663a9059cbb33866040518363ffffffff1660e01b8152600401808373ffffffffffffffffffffffffffffffffffffffff1673ffffffffffffffffffffffffffffffffffffffff16815260200182815260200192505050602060405180830381600087803b15801561073857600080fd5b505af115801561074c573d6000803e3d6000fd5b505050506040513d602081101561076257600080fd5b810190808051906020019092919050505050600160009054906101000a900473ffffffffffffffffffffffffffffffffffffffff1673ffffffffffffffffffffffffffffffffffffffff1663a9059cbb33856040518363ffffffff1660e01b8152600401808373ffffffffffffffffffffffffffffffffffffffff1673ffffffffffffffffffffffffffffffffffffffff16815260200182815260200192505050602060405180830381600087803b15801561081d57600080fd5b505af1158015610831573d6000803e3d6000fd5b505050506040513d602081101561084757600080fd5b8101908080519060200190929190505050505050915091565b60008060009054906101000a900473ffffffffffffffffffffffffffffffffffffffff1673ffffffffffffffffffffffffffffffffffffffff166323b872dd3330866040518463ffffffff1660e01b8152600401808473ffffffffffffffffffffffffffffffffffffffff1673ffffffffffffffffffffffffffffffffffffffff1681526020018373ffffffffffffffffffffffffffffffffffffffff1673ffffffffffffffffffffffffffffffffffffffff1681526020018281526020019350505050602060405180830381600087803b15801561093e57600080fd5b505af1158015610952573d6000803e3d6000fd5b505050506040513d602081101561096857600080fd5b810190808051906020019092919050505050600160009054906101000a900473ffffffffffffffffffffffffffffffffffffffff1673ffffffffffffffffffffffffffffffffffffffff166323b872dd3330856040518463ffffffff1660e01b8152600401808473ffffffffffffffffffffffffffffffffffffffff1673ffffffffffffffffffffffffffffffffffffffff1681526020018373ffffffffffffffffffffffffffffffffffffffff1673ffffffffffffffffffffffffffffffffffffffff1681526020018281526020019350505050602060405180830381600087803b158015610a5757600080fd5b505af1158015610a6b573d6000803e3d6000fd5b505050506040513d6020811015610a8157600080fd5b81019080805190602001909291905050505060006002541180610aa657506000600354115b15610b29578260035402826002540214610b28576040517f08c379a00000000000000000000000000000000000000000000000000000000081526004018080602001828103825260108152602001807f78202f207920213d206478202f2064790000000000000000000000000000000081525060200191505060405180910390fd5b5b60006004541415610b4657610b3f828402611485565b9050610b71565b610b6e600254600454850281610b5857fe5b04600354600454850281610b6857fe5b046114e7565b90505b60008111610be7576040517f08c379a000000000000000000000000000000000000000000000000000000000815260040180806020018281038252600a8152602001807f736861726573203d20300000000000000000000000000000000000000000000081525060200191505060405180910390fd5b610bf13382611501565b610dac6000809054906101000a900473ffffffffffffffffffffffffffffffffffffffff1673ffffffffffffffffffffffffffffffffffffffff166370a08231306040518263ffffffff1660e01b8152600401808273ffffffffffffffffffffffffffffffffffffffff1673ffffffffffffffffffffffffffffffffffffffff16815260200191505060206040518083038186803b158015610c9257600080fd5b505afa158015610ca6573d6000803e3d6000fd5b505050506040513d6020811015610cbc57600080fd5b8101908080519060200190929190505050600160009054906101000a900473ffffffffffffffffffffffffffffffffffffffff1673ffffffffffffffffffffffffffffffffffffffff166370a08231306040518263ffffffff1660e01b8152600401808273ffffffffffffffffffffffffffffffffffffffff1673ffffffffffffffffffffffffffffffffffffffff16815260200191505060206040518083038186803b158015610d6c57600080fd5b505afa158015610d80573d6000803e3d6000fd5b505050506040513d6020811015610d9657600080fd5b8101908080519060200190929190505050611473565b92915050565b60008060009054906101000a900473ffffffffffffffffffffffffffffffffffffffff1673ffffffffffffffffffffffffffffffffffffffff168373ffffffffffffffffffffffffffffffffffffffff161480610e5c5750600160009054906101000a900473ffffffffffffffffffffffffffffffffffffffff1673ffffffffffffffffffffffffffffffffffffffff168373ffffffffffffffffffffffffffffffffffffffff16145b610ece576040517f08c379a000000000000000000000000000000000000000000000000000000000815260040180806020018281038252600d8152602001807f696e76616c696420746f6b656e0000000000000000000000000000000000000081525060200191505060405180910390fd5b60008211610f44576040517f08c379a000000000000000000000000000000000000000000000000000000000815260040180806020018281038252600d8152602001807f616d6f756e7420696e203d20300000000000000000000000000000000000000081525060200191505060405180910390fd5b60008060009054906101000a900473ffffffffffffffffffffffffffffffffffffffff1673ffffffffffffffffffffffffffffffffffffffff168473ffffffffffffffffffffffffffffffffffffffff1614905060008060008084610ff357600160009054906101000a900473ffffffffffffffffffffffffffffffffffffffff166000809054906101000a900473ffffffffffffffffffffffffffffffffffffffff1660035460025461103f565b6000809054906101000a900473ffffffffffffffffffffffffffffffffffffffff16600160009054906101000a900473ffffffffffffffffffffffffffffffffffffffff166002546003545b93509350935093508373ffffffffffffffffffffffffffffffffffffffff166323b872dd33308a6040518463ffffffff1660e01b8152600401808473ffffffffffffffffffffffffffffffffffffffff1673ffffffffffffffffffffffffffffffffffffffff1681526020018373ffffffffffffffffffffffffffffffffffffffff1673ffffffffffffffffffffffffffffffffffffffff1681526020018281526020019350505050602060405180830381600087803b15801561110257600080fd5b505af1158015611116573d6000803e3d6000fd5b505050506040513d602081101561112c57600080fd5b81019080805190602001909291905050505060006103e86103e589028161114f57fe5b0490508083018183028161115f57fe5b0496508373ffffffffffffffffffffffffffffffffffffffff1663a9059cbb33896040518363ffffffff1660e01b8152600401808373ffffffffffffffffffffffffffffffffffffffff1673ffffffffffffffffffffffffffffffffffffffff16815260200182815260200192505050602060405180830381600087803b1580156111e957600080fd5b505af11580156111fd573d6000803e3d6000fd5b505050506040513d602081101561121357600080fd5b8101908080519060200190929190505050506113e06000809054906101000a900473ffffffffffffffffffffffffffffffffffffffff1673ffffffffffffffffffffffffffffffffffffffff166370a08231306040518263ffffffff1660e01b8152600401808273ffffffffffffffffffffffffffffffffffffffff1673ffffffffffffffffffffffffffffffffffffffff16815260200191505060206040518083038186803b1580156112c657600080fd5b505afa1580156112da573d6000803e3d6000fd5b505050506040513d60208110156112f057600080fd5b8101908080519060200190929190505050600160009054906101000a900473ffffffffffffffffffffffffffffffffffffffff1673ffffffffffffffffffffffffffffffffffffffff166370a08231306040518263ffffffff1660e01b8152600401808273ffffffffffffffffffffffffffffffffffffffff1673ffffffffffffffffffffffffffffffffffffffff16815260200191505060206040518083038186803b1580156113a057600080fd5b505afa1580156113b4573d6000803e3d6000fd5b505050506040513d60208110156113ca57600080fd5b8101908080519060200190929190505050611473565b50505050505092915050565b600160009054906101000a900473ffffffffffffffffffffffffffffffffffffffff1681565b80600560008473ffffffffffffffffffffffffffffffffffffffff1673ffffffffffffffffffffffffffffffffffffffff16815260200190815260200160002060008282540392505081905550806004600082825403925050819055505050565b81600281905550806003819055505050565b600060038211156114d45781905060006001600284816114a157fe5b040190505b818110156114ce578091506002818285816114bd57fe5b0401816114c657fe5b0490506114a6565b506114e2565b600082146114e157600190505b5b919050565b6000818311156114f757816114f9565b825b905092915050565b80600560008473ffffffffffffffffffffffffffffffffffffffff1673ffffffffffffffffffffffffffffffffffffffff1681526020019081526020016000206000828254019250508190555080600460008282540192505081905550505056fea265627a7a7231582079293aa5747126ecbb61c561754389f92a739a224800be8e6d95109d3f0d2a3164736f6c63430005110032",
  "source": "// SPDX-License-Identifier: MIT\npragma solidity ^0.5.16;\n\nimport {ERC20Interface} from \"./ERC20Interface.sol\";\n\ncontract CPAMM {\n\n    ERC20Interface public  token0;\n    ERC20Interface public  token1;\n\n    uint public reserve0;\n    uint public reserve1;\n\n    uint public totalSupply;\n    mapping(address => uint) public balanceOf;\n\n\n    function _newCaPMM(ERC20Interface _token0, ERC20Interface _token1) public  {\n        token0 = ERC20Interface(_token0);\n        token1 = ERC20Interface(_token1);\n    }\n\n    function _mint(address _to, uint _amount) private {\n        balanceOf[_to] += _amount;\n        totalSupply += _amount;\n    }\n\n    function _burn(address _from, uint _amount) private {\n        balanceOf[_from] -= _amount;\n        totalSupply -= _amount;\n    }\n\n    function _update(uint _reserve0, uint _reserve1) private {\n        reserve0 = _reserve0;\n        reserve1 = _reserve1;\n    }\n\n    function swap(\n        address _tokenIn,\n        uint _amountIn\n    ) external returns (uint amountOut) {\n        require(\n            _tokenIn == address(token0) || _tokenIn == address(token1),\n            \"invalid token\"\n        );\n        require(_amountIn > 0, \"amount in = 0\");\n\n        bool isToken0 = _tokenIn == address(token0);\n        (\n            ERC20Interface tokenIn,\n            ERC20Interface tokenOut,\n            uint reserveIn,\n            uint reserveOut\n        ) = isToken0\n            ? (token0, token1, reserve0, reserve1)\n            : (token1, token0, reserve1, reserve0);\n\n        tokenIn.transferFrom(msg.sender, address(this), _amountIn);\n\n        uint amountInWithFee = (_amountIn * 997) / 1000;\n        amountOut =\n            (reserveOut * amountInWithFee) /\n            (reserveIn + amountInWithFee);\n\n        tokenOut.transfer(msg.sender, amountOut);\n\n        _update(\n            token0.balanceOf(address(this)),\n            token1.balanceOf(address(this))\n        );\n    }\n\n    function addLiquidity(\n        uint _amount0,\n        uint _amount1\n    ) external returns (uint shares) {\n        token0.transferFrom(msg.sender, address(this), _amount0);\n        token1.transferFrom(msg.sender, address(this), _amount1);\n\n        if (reserve0 > 0 || reserve1 > 0) {\n            require(\n                reserve0 * _amount1 == reserve1 * _amount0,\n                \"x / y != dx / dy\"\n            );\n        }\n        if (totalSupply == 0) {\n            shares = _sqrt(_amount0 * _amount1);\n        } else {\n            shares = _min(\n                (_amount0 * totalSupply) / reserve0,\n                (_amount1 * totalSupply) / reserve1\n            );\n        }\n        require(shares > 0, \"shares = 0\");\n        _mint(msg.sender, shares);\n\n        _update(\n            token0.balanceOf(address(this)),\n            token1.balanceOf(address(this))\n        );\n    }\n\n    function removeLiquidity(\n        uint _shares\n    ) external returns (uint amount0, uint amount1) {\n        uint bal0 = token0.balanceOf(address(this));\n        uint bal1 = token1.balanceOf(address(this));\n\n        amount0 = (_shares * bal0) / totalSupply;\n        amount1 = (_shares * bal1) / totalSupply;\n        require(amount0 > 0 && amount1 > 0, \"amount0 or amount1 = 0\");\n\n        _burn(msg.sender, _shares);\n        _update(bal0 - amount0, bal1 - amount1);\n\n        token0.transfer(msg.sender, amount0);\n        token1.transfer(msg.sender, amount1);\n    }\n\n    function _sqrt(uint y) private pure returns (uint z) {\n        if (y > 3) {\n            z = y;\n            uint x = y / 2 + 1;\n            while (x < z) {\n                z = x;\n                x = (y / x + x) / 2;\n            }\n        } else if (y != 0) {\n            z = 1;\n        }\n    }\n\n    function _min(uint x, uint y) private pure returns (uint) {\n        return x <= y ? x : y;\n    }\n}",
  "sourcePath": "/home/trungdq/blockchain/contracts/SwapAMM.sol",
  "compiler": {
    "name": "solc",
    "version": "0.5.17+commit.d19bba13.Emscripten.clang"
  },
  "schemaVersion": "3.4.16",
  "updatedAt": "2025-02-17T12:27:15.296Z",
  "devdoc": {
    "methods": {}
  },
  "userdoc": {
    "methods": {}
  }
}