{
  "contractName": "SupplyChain",
  "abi": [
    {
      "anonymous": false,
      "inputs": [
        {
          "indexed": false,
          "internalType": "uint32",
          "name": "productId",
          "type": "uint32"
        }
      ],
      "name": "TransferOwnership",
      "type": "event"
    },
    {
      "constant": true,
      "inputs": [],
      "name": "Consumer",
      "outputs": [
        {
          "internalType": "string",
          "name": "",
          "type": "string"
        }
      ],
      "payable": false,
      "stateMutability": "view",
      "type": "function"
    },
    {
      "constant": true,
      "inputs": [],
      "name": "Manufacturer",
      "outputs": [
        {
          "internalType": "string",
          "name": "",
          "type": "string"
        }
      ],
      "payable": false,
      "stateMutability": "view",
      "type": "function"
    },
    {
      "constant": true,
      "inputs": [],
      "name": "Supplier",
      "outputs": [
        {
          "internalType": "string",
          "name": "",
          "type": "string"
        }
      ],
      "payable": false,
      "stateMutability": "view",
      "type": "function"
    },
    {
      "constant": true,
      "inputs": [],
      "name": "ownerId",
      "outputs": [
        {
          "internalType": "uint32",
          "name": "",
          "type": "uint32"
        }
      ],
      "payable": false,
      "stateMutability": "view",
      "type": "function"
    },
    {
      "constant": true,
      "inputs": [
        {
          "internalType": "uint32",
          "name": "",
          "type": "uint32"
        }
      ],
      "name": "ownerships",
      "outputs": [
        {
          "internalType": "uint32",
          "name": "productId",
          "type": "uint32"
        },
        {
          "internalType": "uint32",
          "name": "ownerId",
          "type": "uint32"
        },
        {
          "internalType": "uint32",
          "name": "trxTimestamp",
          "type": "uint32"
        },
        {
          "internalType": "address",
          "name": "productOwner",
          "type": "address"
        }
      ],
      "payable": false,
      "stateMutability": "view",
      "type": "function"
    },
    {
      "constant": true,
      "inputs": [],
      "name": "participantId",
      "outputs": [
        {
          "internalType": "uint32",
          "name": "",
          "type": "uint32"
        }
      ],
      "payable": false,
      "stateMutability": "view",
      "type": "function"
    },
    {
      "constant": true,
      "inputs": [
        {
          "internalType": "uint32",
          "name": "",
          "type": "uint32"
        }
      ],
      "name": "participants",
      "outputs": [
        {
          "internalType": "string",
          "name": "username",
          "type": "string"
        },
        {
          "internalType": "string",
          "name": "pwd",
          "type": "string"
        },
        {
          "internalType": "string",
          "name": "participantType",
          "type": "string"
        },
        {
          "internalType": "address",
          "name": "participantAddress",
          "type": "address"
        }
      ],
      "payable": false,
      "stateMutability": "view",
      "type": "function"
    },
    {
      "constant": true,
      "inputs": [],
      "name": "productId",
      "outputs": [
        {
          "internalType": "uint32",
          "name": "",
          "type": "uint32"
        }
      ],
      "payable": false,
      "stateMutability": "view",
      "type": "function"
    },
    {
      "constant": true,
      "inputs": [
        {
          "internalType": "uint32",
          "name": "",
          "type": "uint32"
        },
        {
          "internalType": "uint256",
          "name": "",
          "type": "uint256"
        }
      ],
      "name": "productTrack",
      "outputs": [
        {
          "internalType": "uint32",
          "name": "",
          "type": "uint32"
        }
      ],
      "payable": false,
      "stateMutability": "view",
      "type": "function"
    },
    {
      "constant": true,
      "inputs": [
        {
          "internalType": "uint32",
          "name": "",
          "type": "uint32"
        }
      ],
      "name": "products",
      "outputs": [
        {
          "internalType": "string",
          "name": "modelNumber",
          "type": "string"
        },
        {
          "internalType": "string",
          "name": "serialNumber",
          "type": "string"
        },
        {
          "internalType": "address",
          "name": "productOwner",
          "type": "address"
        },
        {
          "internalType": "uint32",
          "name": "cost",
          "type": "uint32"
        },
        {
          "internalType": "uint32",
          "name": "timestamp",
          "type": "uint32"
        }
      ],
      "payable": false,
      "stateMutability": "view",
      "type": "function"
    },
    {
      "constant": false,
      "inputs": [
        {
          "internalType": "string",
          "name": "name",
          "type": "string"
        },
        {
          "internalType": "string",
          "name": "pwd",
          "type": "string"
        },
        {
          "internalType": "address",
          "name": "pAdd",
          "type": "address"
        },
        {
          "internalType": "string",
          "name": "pType",
          "type": "string"
        }
      ],
      "name": "addParticipant",
      "outputs": [
        {
          "internalType": "uint32",
          "name": "",
          "type": "uint32"
        }
      ],
      "payable": false,
      "stateMutability": "nonpayable",
      "type": "function"
    },
    {
      "constant": true,
      "inputs": [
        {
          "internalType": "uint32",
          "name": "_productId",
          "type": "uint32"
        }
      ],
      "name": "getParticipant",
      "outputs": [
        {
          "internalType": "string",
          "name": "",
          "type": "string"
        },
        {
          "internalType": "address",
          "name": "",
          "type": "address"
        },
        {
          "internalType": "string",
          "name": "",
          "type": "string"
        }
      ],
      "payable": false,
      "stateMutability": "view",
      "type": "function"
    },
    {
      "constant": false,
      "inputs": [
        {
          "internalType": "uint32",
          "name": "_ownerId",
          "type": "uint32"
        },
        {
          "internalType": "string",
          "name": "modelNumber",
          "type": "string"
        },
        {
          "internalType": "string",
          "name": "serialNumber",
          "type": "string"
        },
        {
          "internalType": "uint32",
          "name": "cost",
          "type": "uint32"
        }
      ],
      "name": "addProduct",
      "outputs": [
        {
          "internalType": "uint32",
          "name": "",
          "type": "uint32"
        }
      ],
      "payable": false,
      "stateMutability": "nonpayable",
      "type": "function"
    },
    {
      "constant": true,
      "inputs": [
        {
          "internalType": "uint32",
          "name": "_productId",
          "type": "uint32"
        }
      ],
      "name": "getProduct",
      "outputs": [
        {
          "internalType": "string",
          "name": "",
          "type": "string"
        },
        {
          "internalType": "string",
          "name": "",
          "type": "string"
        },
        {
          "internalType": "uint32",
          "name": "",
          "type": "uint32"
        },
        {
          "internalType": "address",
          "name": "",
          "type": "address"
        },
        {
          "internalType": "uint32",
          "name": "",
          "type": "uint32"
        }
      ],
      "payable": false,
      "stateMutability": "view",
      "type": "function"
    },
    {
      "constant": false,
      "inputs": [
        {
          "internalType": "uint32",
          "name": "currentUserId",
          "type": "uint32"
        },
        {
          "internalType": "uint32",
          "name": "newUserId",
          "type": "uint32"
        },
        {
          "internalType": "uint32",
          "name": "_productId",
          "type": "uint32"
        }
      ],
      "name": "newOwner",
      "outputs": [
        {
          "internalType": "bool",
          "name": "",
          "type": "bool"
        }
      ],
      "payable": false,
      "stateMutability": "nonpayable",
      "type": "function"
    },
    {
      "constant": true,
      "inputs": [
        {
          "internalType": "uint32",
          "name": "_productId",
          "type": "uint32"
        }
      ],
      "name": "getProvenance",
      "outputs": [
        {
          "internalType": "uint32[]",
          "name": "",
          "type": "uint32[]"
        }
      ],
      "payable": false,
      "stateMutability": "view",
      "type": "function"
    }
  ],
  "bytecode": "0x608060405260008060006101000a81548163ffffffff021916908363ffffffff16021790555060008060046101000a81548163ffffffff021916908363ffffffff16021790555060008060086101000a81548163ffffffff021916908363ffffffff16021790555034801561007357600080fd5b50612dd6806100836000396000f3fe608060405234801561001057600080fd5b50600436106101005760003560e01c8063a638ac4911610097578063c856956511610066578063c8569565146109e8578063dbe9336914610a71578063ebf43a7e14610af4578063fb54fd0414610d1d57610100565b8063a638ac4914610657578063ab6db5dc146107c9578063bf712fd61461084c578063c5ce3911146109be57610100565b80633b26a65d116100d35780633b26a65d1461027c57806368bad9ff146103c85780637d0a9ac9146103f257806381e15610146105aa57610100565b8063019c08f514610105578063156079761461012f5780631a074802146101b25780632e9d528414610210575b600080fd5b61010d610eaf565b604051808263ffffffff1663ffffffff16815260200191505060405180910390f35b610137610ec5565b6040518080602001828103825283818151815260200191508051906020019080838360005b8381101561017757808201518184015260208101905061015c565b50505050905090810190601f1680156101a45780820380516001836020036101000a031916815260200191505b509250505060405180910390f35b6101ee600480360360408110156101c857600080fd5b81019080803563ffffffff16906020019092919080359060200190929190505050610efe565b604051808263ffffffff1663ffffffff16815260200191505060405180910390f35b6102626004803603606081101561022657600080fd5b81019080803563ffffffff169060200190929190803563ffffffff169060200190929190803563ffffffff169060200190929190505050610f44565b604051808215151515815260200191505060405180910390f35b6102ae6004803603602081101561029257600080fd5b81019080803563ffffffff169060200190929190505050611dff565b60405180806020018473ffffffffffffffffffffffffffffffffffffffff1673ffffffffffffffffffffffffffffffffffffffff16815260200180602001838103835286818151815260200191508051906020019080838360005b83811015610324578082015181840152602081019050610309565b50505050905090810190601f1680156103515780820380516001836020036101000a031916815260200191505b50838103825284818151815260200191508051906020019080838360005b8381101561038a57808201518184015260208101905061036f565b50505050905090810190601f1680156103b75780820380516001836020036101000a031916815260200191505b509550505050505060405180910390f35b6103d0611fd1565b604051808263ffffffff1663ffffffff16815260200191505060405180910390f35b6104246004803603602081101561040857600080fd5b81019080803563ffffffff169060200190929190505050611fe7565b604051808060200180602001806020018573ffffffffffffffffffffffffffffffffffffffff1673ffffffffffffffffffffffffffffffffffffffff168152602001848103845288818151815260200191508051906020019080838360005b8381101561049e578082015181840152602081019050610483565b50505050905090810190601f1680156104cb5780820380516001836020036101000a031916815260200191505b50848103835287818151815260200191508051906020019080838360005b838110156105045780820151818401526020810190506104e9565b50505050905090810190601f1680156105315780820380516001836020036101000a031916815260200191505b50848103825286818151815260200191508051906020019080838360005b8381101561056a57808201518184015260208101905061054f565b50505050905090810190601f1680156105975780820380516001836020036101000a031916815260200191505b5097505050505050505060405180910390f35b6105dc600480360360208110156105c057600080fd5b81019080803563ffffffff1690602001909291905050506121ff565b604051808563ffffffff1663ffffffff1681526020018463ffffffff1663ffffffff1681526020018363ffffffff1663ffffffff1681526020018273ffffffffffffffffffffffffffffffffffffffff1673ffffffffffffffffffffffffffffffffffffffff16815260200194505050505060405180910390f35b6106896004803603602081101561066d57600080fd5b81019080803563ffffffff16906020019092919050505061227f565b6040518080602001806020018663ffffffff1663ffffffff1681526020018573ffffffffffffffffffffffffffffffffffffffff1673ffffffffffffffffffffffffffffffffffffffff1681526020018463ffffffff1663ffffffff168152602001838103835288818151815260200191508051906020019080838360005b83811015610723578082015181840152602081019050610708565b50505050905090810190601f1680156107505780820380516001836020036101000a031916815260200191505b50838103825287818151815260200191508051906020019080838360005b8381101561078957808201518184015260208101905061076e565b50505050905090810190601f1680156107b65780820380516001836020036101000a031916815260200191505b5097505050505050505060405180910390f35b6107d16124bf565b6040518080602001828103825283818151815260200191508051906020019080838360005b838110156108115780820151818401526020810190506107f6565b50505050905090810190601f16801561083e5780820380516001836020036101000a031916815260200191505b509250505060405180910390f35b61087e6004803603602081101561086257600080fd5b81019080803563ffffffff1690602001909291905050506124f8565b6040518080602001806020018673ffffffffffffffffffffffffffffffffffffffff1673ffffffffffffffffffffffffffffffffffffffff1681526020018563ffffffff1663ffffffff1681526020018463ffffffff1663ffffffff168152602001838103835288818151815260200191508051906020019080838360005b838110156109185780820151818401526020810190506108fd565b50505050905090810190601f1680156109455780820380516001836020036101000a031916815260200191505b50838103825287818151815260200191508051906020019080838360005b8381101561097e578082015181840152602081019050610963565b50505050905090810190601f1680156109ab5780820380516001836020036101000a031916815260200191505b5097505050505050505060405180910390f35b6109c661269e565b604051808263ffffffff1663ffffffff16815260200191505060405180910390f35b610a1a600480360360208110156109fe57600080fd5b81019080803563ffffffff1690602001909291905050506126b3565b6040518080602001828103825283818151815260200191508051906020019060200280838360005b83811015610a5d578082015181840152602081019050610a42565b505050509050019250505060405180910390f35b610a79612756565b6040518080602001828103825283818151815260200191508051906020019080838360005b83811015610ab9578082015181840152602081019050610a9e565b50505050905090810190601f168015610ae65780820380516001836020036101000a031916815260200191505b509250505060405180910390f35b610cfb60048036036080811015610b0a57600080fd5b8101908080359060200190640100000000811115610b2757600080fd5b820183602082011115610b3957600080fd5b80359060200191846001830284011164010000000083111715610b5b57600080fd5b91908080601f016020809104026020016040519081016040528093929190818152602001838380828437600081840152601f19601f82011690508083019250505050505050919291929080359060200190640100000000811115610bbe57600080fd5b820183602082011115610bd057600080fd5b80359060200191846001830284011164010000000083111715610bf257600080fd5b91908080601f016020809104026020016040519081016040528093929190818152602001838380828437600081840152601f19601f820116905080830192505050505050509192919290803573ffffffffffffffffffffffffffffffffffffffff16906020019092919080359060200190640100000000811115610c7557600080fd5b820183602082011115610c8757600080fd5b80359060200191846001830284011164010000000083111715610ca957600080fd5b91908080601f016020809104026020016040519081016040528093929190818152602001838380828437600081840152601f19601f82011690508083019250505050505050919291929050505061278f565b604051808263ffffffff1663ffffffff16815260200191505060405180910390f35b610e8d60048036036080811015610d3357600080fd5b81019080803563ffffffff16906020019092919080359060200190640100000000811115610d6057600080fd5b820183602082011115610d7257600080fd5b80359060200191846001830284011164010000000083111715610d9457600080fd5b91908080601f016020809104026020016040519081016040528093929190818152602001838380828437600081840152601f19601f82011690508083019250505050505050919291929080359060200190640100000000811115610df757600080fd5b820183602082011115610e0957600080fd5b80359060200191846001830284011164010000000083111715610e2b57600080fd5b91908080601f016020809104026020016040519081016040528093929190818152602001838380828437600081840152601f19601f820116905080830192505050505050509192919290803563ffffffff1690602001909291905050506128e0565b604051808263ffffffff1663ffffffff16815260200191505060405180910390f35b600060089054906101000a900463ffffffff1681565b6040518060400160405280600881526020017f436f6e73756d657200000000000000000000000000000000000000000000000081525081565b60036020528160005260406000208181548110610f1757fe5b9060005260206000209060089182820401919006600402915091509054906101000a900463ffffffff1681565b600081600160008263ffffffff1663ffffffff16815260200190815260200160002060020160009054906101000a900473ffffffffffffffffffffffffffffffffffffffff1673ffffffffffffffffffffffffffffffffffffffff163373ffffffffffffffffffffffffffffffffffffffff1614611005576040517f08c379a0000000000000000000000000000000000000000000000000000000008152600401808060200182810382526000815260200160200191505060405180910390fd5b61100d612cbe565b600460008763ffffffff1663ffffffff168152602001908152602001600020604051806080016040529081600082018054600181600116156101000203166002900480601f0160208091040260200160405190810160405280929190818152602001828054600181600116156101000203166002900480156110d05780601f106110a5576101008083540402835291602001916110d0565b820191906000526020600020905b8154815290600101906020018083116110b357829003601f168201915b50505050508152602001600182018054600181600116156101000203166002900480601f0160208091040260200160405190810160405280929190818152602001828054600181600116156101000203166002900480156111725780601f1061114757610100808354040283529160200191611172565b820191906000526020600020905b81548152906001019060200180831161115557829003601f168201915b50505050508152602001600282018054600181600116156101000203166002900480601f0160208091040260200160405190810160405280929190818152602001828054600181600116156101000203166002900480156112145780601f106111e957610100808354040283529160200191611214565b820191906000526020600020905b8154815290600101906020018083116111f757829003601f168201915b505050505081526020016003820160009054906101000a900473ffffffffffffffffffffffffffffffffffffffff1673ffffffffffffffffffffffffffffffffffffffff1673ffffffffffffffffffffffffffffffffffffffff1681525050905061127d612cbe565b600460008763ffffffff1663ffffffff168152602001908152602001600020604051806080016040529081600082018054600181600116156101000203166002900480601f0160208091040260200160405190810160405280929190818152602001828054600181600116156101000203166002900480156113405780601f1061131557610100808354040283529160200191611340565b820191906000526020600020905b81548152906001019060200180831161132357829003601f168201915b50505050508152602001600182018054600181600116156101000203166002900480601f0160208091040260200160405190810160405280929190818152602001828054600181600116156101000203166002900480156113e25780601f106113b7576101008083540402835291602001916113e2565b820191906000526020600020905b8154815290600101906020018083116113c557829003601f168201915b50505050508152602001600282018054600181600116156101000203166002900480601f0160208091040260200160405190810160405280929190818152602001828054600181600116156101000203166002900480156114845780601f1061145957610100808354040283529160200191611484565b820191906000526020600020905b81548152906001019060200180831161146757829003601f168201915b505050505081526020016003820160009054906101000a900473ffffffffffffffffffffffffffffffffffffffff1673ffffffffffffffffffffffffffffffffffffffff1673ffffffffffffffffffffffffffffffffffffffff16815250509050600080600881819054906101000a900463ffffffff168092919060010191906101000a81548163ffffffff021916908363ffffffff160217905550905061156e6040518060400160405280600c81526020017f4d616e75666163747572657200000000000000000000000000000000000000008152508460400151612bcf90919063ffffffff16565b80156115c257506115c16040518060400160405280600881526020017f537570706c6965720000000000000000000000000000000000000000000000008152508360400151612bcf90919063ffffffff16565b5b156118115785600260008363ffffffff1663ffffffff16815260200190815260200160002060000160006101000a81548163ffffffff021916908363ffffffff1602179055508160600151600260008363ffffffff1663ffffffff168152602001908152602001600020600001600c6101000a81548173ffffffffffffffffffffffffffffffffffffffff021916908373ffffffffffffffffffffffffffffffffffffffff16021790555086600260008363ffffffff1663ffffffff16815260200190815260200160002060000160046101000a81548163ffffffff021916908363ffffffff16021790555042600260008363ffffffff1663ffffffff16815260200190815260200160002060000160086101000a81548163ffffffff021916908363ffffffff1602179055508160600151600160008863ffffffff1663ffffffff16815260200190815260200160002060020160006101000a81548173ffffffffffffffffffffffffffffffffffffffff021916908373ffffffffffffffffffffffffffffffffffffffff160217905550600360008763ffffffff1663ffffffff16815260200190815260200160002081908060018154018082558091505090600182039060005260206000209060089182820401919006600402909192909190916101000a81548163ffffffff021916908363ffffffff160217905550507fa5470ac012c6e9dc500e62b1d3de0de58db49b3ab7cfebbfb126d9abd854199b86604051808263ffffffff1663ffffffff16815260200191505060405180910390a160019450505050611df7565b61185d6040518060400160405280600881526020017f537570706c6965720000000000000000000000000000000000000000000000008152508460400151612bcf90919063ffffffff16565b80156118b157506118b06040518060400160405280600881526020017f537570706c6965720000000000000000000000000000000000000000000000008152508360400151612bcf90919063ffffffff16565b5b15611b005785600260008363ffffffff1663ffffffff16815260200190815260200160002060000160006101000a81548163ffffffff021916908363ffffffff1602179055508160600151600260008363ffffffff1663ffffffff168152602001908152602001600020600001600c6101000a81548173ffffffffffffffffffffffffffffffffffffffff021916908373ffffffffffffffffffffffffffffffffffffffff16021790555086600260008363ffffffff1663ffffffff16815260200190815260200160002060000160046101000a81548163ffffffff021916908363ffffffff16021790555042600260008363ffffffff1663ffffffff16815260200190815260200160002060000160086101000a81548163ffffffff021916908363ffffffff1602179055508160600151600160008863ffffffff1663ffffffff16815260200190815260200160002060020160006101000a81548173ffffffffffffffffffffffffffffffffffffffff021916908373ffffffffffffffffffffffffffffffffffffffff160217905550600360008763ffffffff1663ffffffff16815260200190815260200160002081908060018154018082558091505090600182039060005260206000209060089182820401919006600402909192909190916101000a81548163ffffffff021916908363ffffffff160217905550507fa5470ac012c6e9dc500e62b1d3de0de58db49b3ab7cfebbfb126d9abd854199b86604051808263ffffffff1663ffffffff16815260200191505060405180910390a160019450505050611df7565b611b4c6040518060400160405280600881526020017f537570706c6965720000000000000000000000000000000000000000000000008152508460400151612bcf90919063ffffffff16565b8015611ba05750611b9f6040518060400160405280600881526020017f436f6e73756d65720000000000000000000000000000000000000000000000008152508360400151612bcf90919063ffffffff16565b5b15611def5785600260008363ffffffff1663ffffffff16815260200190815260200160002060000160006101000a81548163ffffffff021916908363ffffffff1602179055508160600151600260008363ffffffff1663ffffffff168152602001908152602001600020600001600c6101000a81548173ffffffffffffffffffffffffffffffffffffffff021916908373ffffffffffffffffffffffffffffffffffffffff16021790555086600260008363ffffffff1663ffffffff16815260200190815260200160002060000160046101000a81548163ffffffff021916908363ffffffff16021790555042600260008363ffffffff1663ffffffff16815260200190815260200160002060000160086101000a81548163ffffffff021916908363ffffffff1602179055508160600151600160008863ffffffff1663ffffffff16815260200190815260200160002060020160006101000a81548173ffffffffffffffffffffffffffffffffffffffff021916908373ffffffffffffffffffffffffffffffffffffffff160217905550600360008763ffffffff1663ffffffff16815260200190815260200160002081908060018154018082558091505090600182039060005260206000209060089182820401919006600402909192909190916101000a81548163ffffffff021916908363ffffffff160217905550507fa5470ac012c6e9dc500e62b1d3de0de58db49b3ab7cfebbfb126d9abd854199b86604051808263ffffffff1663ffffffff16815260200191505060405180910390a160019450505050611df7565b600094505050505b509392505050565b606060006060600460008563ffffffff1663ffffffff168152602001908152602001600020600001600460008663ffffffff1663ffffffff16815260200190815260200160002060030160009054906101000a900473ffffffffffffffffffffffffffffffffffffffff16600460008763ffffffff1663ffffffff168152602001908152602001600020600201828054600181600116156101000203166002900480601f016020809104026020016040519081016040528092919081815260200182805460018160011615610100020316600290048015611f215780601f10611ef657610100808354040283529160200191611f21565b820191906000526020600020905b815481529060010190602001808311611f0457829003601f168201915b50505050509250808054600181600116156101000203166002900480601f016020809104026020016040519081016040528092919081815260200182805460018160011615610100020316600290048015611fbd5780601f10611f9257610100808354040283529160200191611fbd565b820191906000526020600020905b815481529060010190602001808311611fa057829003601f168201915b505050505090509250925092509193909250565b600060049054906101000a900463ffffffff1681565b6004602052806000526040600020600091509050806000018054600181600116156101000203166002900480601f0160208091040260200160405190810160405280929190818152602001828054600181600116156101000203166002900480156120935780601f1061206857610100808354040283529160200191612093565b820191906000526020600020905b81548152906001019060200180831161207657829003601f168201915b505050505090806001018054600181600116156101000203166002900480601f0160208091040260200160405190810160405280929190818152602001828054600181600116156101000203166002900480156121315780601f1061210657610100808354040283529160200191612131565b820191906000526020600020905b81548152906001019060200180831161211457829003601f168201915b505050505090806002018054600181600116156101000203166002900480601f0160208091040260200160405190810160405280929190818152602001828054600181600116156101000203166002900480156121cf5780601f106121a4576101008083540402835291602001916121cf565b820191906000526020600020905b8154815290600101906020018083116121b257829003601f168201915b5050505050908060030160009054906101000a900473ffffffffffffffffffffffffffffffffffffffff16905084565b60026020528060005260406000206000915090508060000160009054906101000a900463ffffffff16908060000160049054906101000a900463ffffffff16908060000160089054906101000a900463ffffffff169080600001600c9054906101000a900473ffffffffffffffffffffffffffffffffffffffff16905084565b6060806000806000600160008763ffffffff1663ffffffff168152602001908152602001600020600001600160008863ffffffff1663ffffffff168152602001908152602001600020600101600160008963ffffffff1663ffffffff16815260200190815260200160002060020160149054906101000a900463ffffffff16600160008a63ffffffff1663ffffffff16815260200190815260200160002060020160009054906101000a900473ffffffffffffffffffffffffffffffffffffffff16600160008b63ffffffff1663ffffffff16815260200190815260200160002060020160189054906101000a900463ffffffff16848054600181600116156101000203166002900480601f0160208091040260200160405190810160405280929190818152602001828054600181600116156101000203166002900480156124095780601f106123de57610100808354040283529160200191612409565b820191906000526020600020905b8154815290600101906020018083116123ec57829003601f168201915b50505050509450838054600181600116156101000203166002900480601f0160208091040260200160405190810160405280929190818152602001828054600181600116156101000203166002900480156124a55780601f1061247a576101008083540402835291602001916124a5565b820191906000526020600020905b81548152906001019060200180831161248857829003601f168201915b505050505093509450945094509450945091939590929450565b6040518060400160405280600c81526020017f4d616e756661637475726572000000000000000000000000000000000000000081525081565b6001602052806000526040600020600091509050806000018054600181600116156101000203166002900480601f0160208091040260200160405190810160405280929190818152602001828054600181600116156101000203166002900480156125a45780601f10612579576101008083540402835291602001916125a4565b820191906000526020600020905b81548152906001019060200180831161258757829003601f168201915b505050505090806001018054600181600116156101000203166002900480601f0160208091040260200160405190810160405280929190818152602001828054600181600116156101000203166002900480156126425780601f1061261757610100808354040283529160200191612642565b820191906000526020600020905b81548152906001019060200180831161262557829003601f168201915b5050505050908060020160009054906101000a900473ffffffffffffffffffffffffffffffffffffffff16908060020160149054906101000a900463ffffffff16908060020160189054906101000a900463ffffffff16905085565b6000809054906101000a900463ffffffff1681565b6060600360008363ffffffff1663ffffffff16815260200190815260200160002080548060200260200160405190810160405280929190818152602001828054801561274a57602002820191906000526020600020906000905b82829054906101000a900463ffffffff1663ffffffff168152602001906004019060208260030104928301926001038202915080841161270d5790505b50505050509050919050565b6040518060400160405280600881526020017f537570706c69657200000000000000000000000000000000000000000000000081525081565b6000806000600481819054906101000a900463ffffffff168092919060010191906101000a81548163ffffffff021916908363ffffffff160217905550905085600460008363ffffffff1663ffffffff1681526020019081526020016000206000019080519060200190612804929190612cfc565b5084600460008363ffffffff1663ffffffff168152602001908152602001600020600101908051906020019061283b929190612cfc565b5083600460008363ffffffff1663ffffffff16815260200190815260200160002060030160006101000a81548173ffffffffffffffffffffffffffffffffffffffff021916908373ffffffffffffffffffffffffffffffffffffffff16021790555082600460008363ffffffff1663ffffffff16815260200190815260200160002060020190805190602001906128d3929190612cfc565b5080915050949350505050565b60006129e46040518060400160405280600c81526020017f4d616e7566616374757265720000000000000000000000000000000000000000815250600460008863ffffffff1663ffffffff1681526020019081526020016000206002018054600181600116156101000203166002900480601f0160208091040260200160405190810160405280929190818152602001828054600181600116156101000203166002900480156129d15780601f106129a6576101008083540402835291602001916129d1565b820191906000526020600020905b8154815290600101906020018083116129b457829003601f168201915b5050505050612bcf90919063ffffffff16565b15612bc257600080600081819054906101000a900463ffffffff168092919060010191906101000a81548163ffffffff021916908363ffffffff160217905550905084600160008363ffffffff1663ffffffff1681526020019081526020016000206000019080519060200190612a5c929190612cfc565b5083600160008363ffffffff1663ffffffff1681526020019081526020016000206001019080519060200190612a93929190612cfc565b5082600160008363ffffffff1663ffffffff16815260200190815260200160002060020160146101000a81548163ffffffff021916908363ffffffff160217905550600460008763ffffffff1663ffffffff16815260200190815260200160002060030160009054906101000a900473ffffffffffffffffffffffffffffffffffffffff16600160008363ffffffff1663ffffffff16815260200190815260200160002060020160006101000a81548173ffffffffffffffffffffffffffffffffffffffff021916908373ffffffffffffffffffffffffffffffffffffffff16021790555042600160008363ffffffff1663ffffffff16815260200190815260200160002060020160186101000a81548163ffffffff021916908363ffffffff16021790555080915050612bc7565b600090505b949350505050565b6000816040516020018082805190602001908083835b60208310612c085780518252602082019150602081019050602083039250612be5565b6001836020036101000a03801982511681845116808217855250505050505090500191505060405160208183030381529060405280519060200120836040516020018082805190602001908083835b60208310612c7a5780518252602082019150602081019050602083039250612c57565b6001836020036101000a0380198251168184511680821785525050505050509050019150506040516020818303038152906040528051906020012014905092915050565b6040518060800160405280606081526020016060815260200160608152602001600073ffffffffffffffffffffffffffffffffffffffff1681525090565b828054600181600116156101000203166002900490600052602060002090601f016020900481019282601f10612d3d57805160ff1916838001178555612d6b565b82800160010185558215612d6b579182015b82811115612d6a578251825591602001919060010190612d4f565b5b509050612d789190612d7c565b5090565b612d9e91905b80821115612d9a576000816000905550600101612d82565b5090565b9056fea265627a7a72315820ec20210e9103fb8a978665d97912daa76d639fc569e2aa0318d793e7e26676b064736f6c63430005110032",
  "source": "// SPDX-License-Identifier: UNLICENSED\npragma solidity ^0.5.16;\n\nimport \"./Utils.sol\";\n\ncontract SupplyChain {\n\n    uint32 public productId = 0;\n    uint32 public participantId = 0;\n    uint32 public ownerId = 0;\n\n    string public constant Manufacturer = \"Manufacturer\";\n    string public constant Supplier = \"Supplier\";\n    string public constant Consumer = \"Consumer\";\n\n    using Utils for string;\n\n    struct product {\n        string modelNumber;\n        string serialNumber;\n        address productOwner;\n        uint32 cost;\n        uint32 timestamp;\n    }\n\n    mapping(uint32 => product) public products;\n\n    struct ownership {\n        uint32 productId;\n        uint32 ownerId;\n        uint32 trxTimestamp;\n        address productOwner;\n    }\n\n    mapping(uint32 => ownership) public ownerships;\n    mapping(uint32 => uint32[]) public productTrack;\n\n    struct participant {\n        string username;\n        string pwd;\n        string participantType;\n        address participantAddress;\n    }\n\n    mapping(uint32 => participant) public participants;\n\n\n    modifier onlyOwner(uint32 _productId) {\n        require(msg.sender == products[_productId].productOwner, \"\");\n        _;\n    }\n\n    function addParticipant(string memory name, string memory pwd, address pAdd, string memory pType) public returns (uint32) {\n        uint32 userId = participantId++;\n        participants[userId].username = name;\n        participants[userId].pwd = pwd;\n        participants[userId].participantAddress = pAdd;\n        participants[userId].participantType = pType;\n        return userId;\n    }\n\n    function getParticipant(uint32 _productId) public view returns (string memory, address, string memory)  {\n        return (participants[_productId].username, participants[_productId].participantAddress, participants[_productId].participantType);\n    }\n\n    function addProduct(uint32 _ownerId, string memory modelNumber, string memory serialNumber, uint32 cost) public returns (uint32) {\n        if (participants[_ownerId].participantType.equal(Manufacturer)) {\n            uint32 tmpProductId = productId++;\n            products[tmpProductId].modelNumber = modelNumber;\n            products[tmpProductId].serialNumber = serialNumber;\n            products[tmpProductId].cost = cost;\n            products[tmpProductId].productOwner = participants[_ownerId].participantAddress;\n            products[tmpProductId].timestamp = uint32(block.timestamp);\n            return tmpProductId;\n        }\n        return 0;\n    }\n\n    function getProduct(uint32 _productId) public view returns (string memory, string memory, uint32, address, uint32) {\n        return (products[_productId].modelNumber, products[_productId].serialNumber, products[_productId].cost, products[_productId].productOwner, products[_productId].timestamp);\n    }\n\n    event TransferOwnership(uint32 productId);\n\n\n    function newOwner(uint32 currentUserId, uint32 newUserId, uint32 _productId) onlyOwner(_productId) public returns (bool) {\n\n        participant memory p1 = participants[currentUserId];\n        participant memory p2 = participants[newUserId];\n        uint32 ownershipId = ownerId++;\n\n        if (p1.participantType.equal(Manufacturer) && p2.participantType.equal(Supplier)) {\n            ownerships[ownershipId].productId = _productId;\n            ownerships[ownershipId].productOwner = p2.participantAddress;\n            ownerships[ownershipId].ownerId = newUserId;\n            ownerships[ownershipId].trxTimestamp = uint32(block.timestamp);\n            products[_productId].productOwner = p2.participantAddress;\n            productTrack[_productId].push(ownershipId);\n            emit TransferOwnership(_productId);\n            return (true);\n        } else if (p1.participantType.equal(Supplier) && p2.participantType.equal(Supplier)) {\n            ownerships[ownershipId].productId = _productId;\n            ownerships[ownershipId].productOwner = p2.participantAddress;\n            ownerships[ownershipId].ownerId = newUserId;\n            ownerships[ownershipId].trxTimestamp = uint32(block.timestamp);\n            products[_productId].productOwner = p2.participantAddress;\n            productTrack[_productId].push(ownershipId);\n            emit TransferOwnership(_productId);\n            return (true);\n        } else if (p1.participantType.equal(Supplier) && p2.participantType.equal(Consumer)) {\n            ownerships[ownershipId].productId = _productId;\n            ownerships[ownershipId].productOwner = p2.participantAddress;\n            ownerships[ownershipId].ownerId = newUserId;\n            ownerships[ownershipId].trxTimestamp = uint32(block.timestamp);\n            products[_productId].productOwner = p2.participantAddress;\n            productTrack[_productId].push(ownershipId);\n            emit TransferOwnership(_productId);\n\n            return (true);\n        }\n\n        return (false);\n    }\n\n\n    function getProvenance(uint32 _productId) external view returns (uint32[] memory) {\n        return productTrack[_productId];\n    }\n\n\n}\n",
  "sourcePath": "/home/trungdq/blockchain/contracts/SupplyChain.sol",
  "compiler": {
    "name": "solc",
    "version": "0.5.17+commit.d19bba13.Emscripten.clang"
  },
  "schemaVersion": "3.4.16",
  "updatedAt": "2025-02-16T05:34:58.413Z",
  "networkType": "ethereum",
  "devdoc": {
    "methods": {}
  },
  "userdoc": {
    "methods": {}
  }
}